:020000040000fa
:080000000002040000000000f2
:020000040000fa
:04000800e20300000f
:020000040000fa
:04000c00e20300000b
:020000040000fa
:04001000e203000007
:020000040000fa
:04001400e203000003
:020000040000fa
:04001800e2030000ff
:020000040000fa
:04001c00e2030000fb
:020000040000fa
:04002000e2030000f7
:020000040000fa
:04002400e2030000f3
:020000040000fa
:04002800e2030000ef
:020000040000fa
:04002c00e2030000eb
:020000040000fa
:04003000e2030000e7
:020000040000fa
:04003400980300002d
:020000040000fa
:04003800e2030000df
:020000040000fa
:04003c00e2030000db
:020000040000fa
:04004000e2030000d7
:020000040000fa
:04004400da030000db
:020000040000fa
:04004800e2030000cf
:020000040000fa
:04004c00e2030000cb
:020000040000fa
:04005000e2030000c7
:020000040000fa
:040054005c03000049
:020000040000fa
:04005800540300004d
:020000040000fa
:04005c00c8020000d6
:020000040000fa
:04006000e2030000b7
:020000040000fa
:04006400e2030000b3
:020000040000fa
:04006800e2030000af
:020000040000fa
:04006c00e2030000ab
:020000040000fa
:04007000e2030000a7
:020000040000fa
:04007400e2030000a3
:020000040000fa
:04007800e20300009f
:020000040000fa
:04007c00e20300009b
:020000040000fa
:04008000e203000097
:020000040000fa
:04008400e203000093
:020000040000fa
:04008800e20300008f
:020000040000fa
:04008c00e20300008b
:020000040000fa
:04009000e203000087
:020000040000fa
:04009400e203000083
:020000040000fa
:04009800e20300007f
:020000040000fa
:04009c00e20300007b
:020000040000fa
:0400a000e203000077
:020000040000fa
:0400a400e203000073
:020000040000fa
:0400a800e20300006f
:020000040000fa
:0400ac00e20300006b
:020000040000fa
:0400b000e203000067
:020000040000fa
:0400b400e203000063
:020000040000fa
:0400b800e20300005f
:020000040000fa
:0400bc00e20300005b
:020000040000fa
:0400c000e203000057
:020000040000fa
:0400c400e203000053
:020000040000fa
:0400c800e20300004f
:020000040000fa
:0400cc00e20300004b
:020000040000fa
:0400d000e203000047
:020000040000fa
:0400d400e203000043
:020000040000fa
:0400d800e20300003f
:020000040000fa
:0400dc00e20300003b
:020000040000fa
:0400e000e203000037
:020000040000fa
:0400e400e203000033
:020000040000fa
:0400e800e20300002f
:020000040000fa
:0400ec00e20300002b
:020000040000fa
:0400f000e203000027
:020000040000fa
:0400f400e203000023
:020000040000fa
:0400f800e20300001f
:020000040000fa
:0400fc00e20300001b
:020000040000fa
:04010000e203000016
:020000040000fa
:04010400e203000012
:020000040000fa
:04010800e20300000e
:020000040000fa
:04010c00e20300000a
:020000040000fa
:04011000e203000006
:020000040000fa
:04011400e203000002
:020000040000fa
:04011800e2030000fe
:020000040000fa
:04011c00e2030000fa
:020000040000fa
:04012000e2030000f6
:020000040000fa
:04012400e2030000f2
:020000040000fa
:04012800e2030000ee
:020000040000fa
:04012c00e2030000ea
:020000040000fa
:04013000e2030000e6
:020000040000fa
:04013400e2030000e2
:020000040000fa
:04013800e2030000de
:020000040000fa
:04013c00e2030000da
:020000040000fa
:04014000e2030000d6
:020000040000fa
:04014400e2030000d2
:020000040000fa
:04014800e2030000ce
:020000040000fa
:04014c00e2030000ca
:020000040000fa
:04015000e2030000c6
:020000040000fa
:04015400e2030000c2
:020000040000fa
:04015800e2030000be
:020000040000fa
:04015c00e2030000ba
:020000040000fa
:04016000e2030000b6
:020000040000fa
:04016400e2030000b2
:020000040000fa
:04020800e20300000d
:020000040000fa
:04020c00e203000009
:020000040000fa
:04021000e203000005
:020000040000fa
:04021400e203000001
:020000040000fa
:04021800e2030000fd
:020000040000fa
:04021c00e2030000f9
:020000040000fa
:04022000e2030000f5
:020000040000fa
:04022400e2030000f1
:020000040000fa
:04022800e2030000ed
:020000040000fa
:04022c00e2030000e9
:020000040000fa
:04023000e2030000e5
:020000040000fa
:04023400e2030000e1
:020000040000fa
:04023800e2030000dd
:020000040000fa
:04023c00e2030000d9
:020000040000fa
:04024000e2030000d5
:020000040000fa
:04024400e2030000d1
:020000040000fa
:04024800e2030000cd
:020000040000fa
:04024c00e2030000c9
:020000040000fa
:04025000e2030000c5
:020000040000fa
:04025400e2030000c1
:020000040000fa
:04025800e2030000bd
:020000040000fa
:04025c00e2030000b9
:020000040000fa
:04026000e2030000b5
:020000040000fa
:04026400e2030000b1
:020000040000fa
:04026800e2030000ad
:020000040000fa
:04026c00e2030000a9
:020000040000fa
:04027000e2030000a5
:020000040000fa
:04027400e2030000a1
:020000040000fa
:04027800e20300009d
:020000040000fa
:04027c00e203000099
:020000040000fa
:04028000e203000095
:020000040000fa
:04028400e203000091
:020000040000fa
:04028800e20300008d
:020000040000fa
:04028c00e203000089
:020000040000fa
:04029000e203000085
:020000040000fa
:04029400e203000081
:020000040000fa
:04029800e20300007d
:020000040000fa
:04029c00e203000079
:020000040000fa
:0402a000e203000075
:020000040000fa
:0402a400e203000071
:020000040000fa
:0402a800e20300006d
:020000040000fa
:0402ac00e203000069
:020000040000fa
:0402b000e203000065
:020000040000fa
:0402b400e203000061
:020000040000fa
:0402b800e20300005d
:020000040000fa
:0402bc00e203000059
:020000040000fa
:0402c000e203000055
:020000040000fa
:0402c400e203000051
:020000040000fa
:0402c800e20300004d
:020000040000fa
:0402cc00e203000049
:020000040000fa
:0402d000e203000045
:020000040000fa
:0402d400e203000041
:020000040000fa
:0402d800e20300003d
:020000040000fa
:0402dc00e203000039
:020000040000fa
:0402e000e203000035
:020000040000fa
:0402e400e203000031
:020000040000fa
:0402e800e20300002d
:020000040000fa
:0402ec00e203000029
:020000040000fa
:0402f000e203000025
:020000040000fa
:0402f400e203000021
:020000040000fa
:0402f800e20300001d
:020000040000fa
:0402fc00e203000019
:020000040000fa
:04030000e203000014
:020000040000fa
:04030400e203000010
:020000040000fa
:04030800e20300000c
:020000040000fa
:04030c00e203000008
:020000040000fa
:04031000e203000004
:020000040000fa
:04031400e203000000
:020000040000fa
:04031800e2030000fc
:020000040000fa
:04031c00e2030000f8
:020000040000fa
:04032000e2030000f4
:020000040000fa
:04032400e2030000f0
:020000040000fa
:04032800e2030000ec
:020000040000fa
:04032c00e2030000e8
:020000040000fa
:04033000e2030000e4
:020000040000fa
:04033400e2030000e0
:020000040000fa
:04033800e2030000dc
:020000040000fa
:04033c00e2030000d8
:020000040000fa
:04034000e2030000d4
:020000040000fa
:04034400e2030000d0
:020000040000fa
:04034800e2030000cc
:020000040000fa
:04034c00e2030000c8
:020000040000fa
:04035000e2030000c4
:020000040000fa
:04035400e2030000c0
:020000040000fa
:04035800e2030000bc
:020000040000fa
:04035c00e2030000b8
:020000040000fa
:04036000e2030000b4
:020000040000fa
:04036400e2030000b0
:020000040000fa
:10040000cf8a21000eff23000e01880000000000ab
:10041000000020000000e000020032000001200087
:100420002002880014000700260307000000e000f7
:1004300003003a00800a2500010020000200370076
:100440000000200001002000810f70000100320038
:1004500014000700000020000000e000020032004d
:1004600000000200000000000e3302000000000047
:100470000040da000000fe004440a900e02e200009
:100480000000e0000300320000002000a00188000e
:100490004440a800000006008a1f78008b1f7800e7
:1004a0000000060091018800800478000000eb0045
:1004b0001a003700e284440032a0b4009905ba0063
:1004c000e284440032a0b4009906ba00e2844400f9
:1004d00032a0b4000006eb00476fde00fd07b2005b
:1004e000636ce10003003a00ebff07000000eb0043
:1004f0000a003700606ce10004003a00005deb0088
:100500008b05e900fdff3e00040037006168e10053
:10051000010032000086eb000b00070019c7ba008b
:100520001905ba000e04e00003003a000a00e000da
:10053000e0ff3a0000000600fe07b2009e018800be
:100540008a047800f5ff3700395dba008b05e900b1
:100550000c003200295dba008b05e900080032006a
:100560000c00e00003003a00e284440032a0b40032
:10057000f5ff370019ddba008b05e900faff3a00f4
:100580008904e800e184440032a0b40000000600c1
:100590003600f800809fbe00829fbe00849fbe0090
:1005a000869fbe003400f80000002000a0018800f3
:1005b0000000fa0085a0a9000040800068006000eb
:1005c0000000e0002f003200304580000000e00015
:1005d00007003a000018800020408800204080007a
:1005e000304088000828ef000e28ef001028ef00a8
:1005f000304580000218800080014000c18a200040
:1006000081804100820878000000e80030458800c1
:10061000001880006101b8007040800081408000b7
:1006200002004000838048007040880081408800bc
:100630002140800000188000808f500002003100af
:1006400000188000204088003140800000188000a1
:10065000808f500002003600001880003040880073
:1006600031458000f07f2000808f5000060036006a
:1006700068280700004080000040a000004088007b
:1006800001003700000000000080fa003400f9008b
:100690004f03be004f02be004f01be004f00be0020
:1006a0003600f900004006000000fa008580a9002d
:1006b0000080fa00004006003600f800809fbe006f
:1006c000829fbe00849fbe00869fbe000000fa008d
:1006d0008560a90090240700101180006800600068
:1006e0000000e00008003a00101180006400600083
:1006f0000000e00004003a00101180006200600079
:100700000000e000030032002262a9002242a9009a
:100710002222a9000080fa004f03be004f02be0053
:100720004f01be004f00be003600f9000040060039
:100730003600f800809fbe00829fbe00849fbe00ee
:10074000869fbe000000fa008460a9005016800059
:100750004d00de006140600000c0ea0061406000c2
:100760000080fb00610060004d00dd00521680003b
:10077000f1ff2d008100610001007000501688001b
:1007800010c0b300b327070001408000f0bf2f0066
:1007900000806000004088000080fa004f03be0027
:1007a0004f02be004f01be004f00be003600f900f0
:1007b000004006000000fa0084e0a9000080fa0072
:1007c000004006000040da000000fe001004b10006
:1007d000070035009001b100040034007000b10042
:1007e000030035009001b10001003c00100005003d
:1007f000000005001002b10003003500d005b10073
:1008000001003c0010000500000005006900e10047
:10081000040035006d00e100030034000002b10067
:100820000100320000000500100005008000780083
:100830001106b100030035009101b10001003c0038
:100840000050a100000006000a00fa00e20f50006c
:1008500034003e0010328200e10f500003003200ed
:10086000e20f500011003a000c0037000322200074
:100870000300e00001003a000040da002002e2003c
:10088000020035002822ef0021e2a8002342ab003d
:100890000d003a002342a8000b003700032320007c
:1008a0000300e00001003a000040da003002e200fc
:1008b000020035003822ef0031e2a8003342ab00dd
:1008c00001003a003342a800820178000b00370093
:1008d0003102fb00e10f500004003a002322ab007c
:1008e000feff3a0024118800030037003322ab00da
:1008f000feff3a00a41188008301e9000300e00034
:10090000f3ff3a00e10f500003003a002302ab006e
:10091000feff32000b0037003302ab00feff320057
:100920000800370033002000b3bf9f00c0bf9f0006
:10093000d1bf9f00e2bf9f006a805700ab0d070048
:100940006fb99700020078000080fa0000000600ee
:10095000889fbe008a9fbe00800478000100780056
:100960000204780003057800840578008800780088
:100970000c0007000a01be0088007800090078001a
:10098000280007000a01be008800780009007800ee
:1009900014010700080078004f05be004f04be0098
:1009a000000006004600f8005000f8000770200024
:1009b000370288000700280087037000870288003c
:1009c0004100de000000e90081037800008008009b
:1009d000100000000138e1000d003400010190001a
:1009e0009101900021029000b1029000b7187800a8
:1009f000b7187800b7187800b71878008523780002
:100a0000842378008323780082237800e8805000d4
:100a1000e8804000971b78005000f9004600f9007c
:100a200000000600889fbe008a9fbe008c9fbe000b
:100a30004400f8003400f8001600fa00a301880012
:100a40004440a800110f9800720798000840200049
:100a500008014100020f9800600798002c02200056
:100a60008d02200001047800e88440007085400079
:100a7000f8854000120020000011dd004211de0068
:100a80000201e9000002200020079800028008000f
:100a9000660000005880ca00c80e78004280c80076
:100aa0005900ca00490e78004200c8000000cb007f
:100ab0007f80c80000b0cb003c1c78002c1c780064
:100ac000bd1c7800ad1c78005a80ca00ca0e7800a0
:100ad0004280c8005b00ca004b0e78004200c8008c
:100ae0000000cb007f80c80000b0cb003c1d780028
:100af0002c1d7800bd1d7800ad1d78003d007800ec
:100b0000ad0078005880ca00c80e78004280c80046
:100b10005900ca00490e78004200c8000000cb000e
:100b20007f80c80000b0cb003c1c78002c147800fb
:100b3000bd1c7800ad1478005a80ca00ca0e780037
:100b40004280c8005b00ca004b0e78004200c8001b
:100b50000000cb007f80c80000b0cb003c1d7800b7
:100b60002c1578003d017800ad0178005880ca004e
:100b7000c80e78005a00ca004a0e78000000cb0068
:100b80007f80c80000b0cb003c1c78002c1478009b
:100b90003d1d78002d1578004880ca00c80e7800e9
:100ba0004a00ca004a0e78000000cb007f80c800cf
:100bb00000b0cb003c1c78002c1478003d1d780060
:100bc0002d1578005980ca00c90e78000100ca00ae
:100bd000000e78000000cb007f80c80000b0cb0082
:100be000bd1c7800ad147800bc1d7800ac157800f1
:100bf0004980ca00c90e78000300ca00020e7800be
:100c00000000cb007f80c80000b0cb00bc1c780087
:100c1000ac147800dd257800cd2578002e009000fa
:100c200000044400808444000005450080854500a0
:100c30004000200040079800ee00900012002000c5
:100c40000111dd004311de00520798000220200050
:100c5000220798000002200030079800e280500030
:100c6000610798001e0c9000be04900089044400a7
:100c70005e0090000000e9000080080045000000d0
:100c80000e0d9000fe0590004e0090000000e9005f
:100c9000008008003c0000001b03be001938b900aa
:100ca00059b1b80039bab9000380ca000180c9003f
:100cb0005080c8003d1f42002d974a001938b900e6
:100cc00059b1b80029bab9000380ca000180c9002f
:100cd0005080c8009d1e42009d964a001a03be0027
:100ce00049b1b80029bab9001938b9000300ca00df
:100cf0000100c9005000c8001c1e42001c964a009a
:100d00000000cb005880ca00c80e78004180c8009f
:100d10000000cb007f80c80000b0cb003c1c7800f6
:100d20002c1c7800bd1c7800ad1c78001938b90067
:100d300059b1b80029bab9000300ca000100c900be
:100d40005000c8001c1e42001c964a005e80ca006b
:100d5000ce0e78000030cb005880ca00c80e780054
:100d60004180c8000000cb007f80c80000b0cb00ed
:100d70003c1c78002c1c7800bd1c7800ad1c780051
:100d80002e00900000054500808545003e00900043
:100d90000004440080844400640047009000ca00be
:100da0003000cc009007ca003000cc009007ca0089
:100db0003000cc009000ca003000cc001008e900e0
:100dc000a8ff3a00ae0f90000080fa003400f9004e
:100dd0004400f9004f06be004f05be004f04be00a0
:100de00000000600889fbe008a9fbe008c9fbe0048
:100df0004400f8003400f8000800fa00a30188005d
:100e00004440a80082057800084020000801410005
:100e10000205780001047800820020000011dd0046
:100e2000828440004413de0062035300ea00100095
:100e3000220020000111dd00220798000205450074
:100e4000828545002c0220008d022000e80344002a
:100e50004700ca00470e78004780ca00c70e7800d6
:100e60000000cb004100c80000b0cb003c1c780063
:100e70002c1c780000002000001c7800001c78006a
:100e8000bd1c7800ad1c7800801c7800801c7800a8
:100e90000901b10006800800560000005900ca0090
:100ea000490e78005880ca00c80e78000000cb00b8
:100eb0004100c80000b0cb003c1c78002c1c78001e
:100ec000bd1c7800ad1c78005900ca00490e78009e
:100ed0005880ca00c80e78000000cb004100c8004e
:100ee00000b0cb00bc1c7800ac1478003d1c78002e
:100ef0002d1c78008800b1001b03be001938b90012
:100f000059b1b80029bab9000380ca000180c900ec
:100f10005080c8003d1f42002d974a0049b1b800db
:100f200029bab9003938b9000380ca000180c90064
:100f30005080c8009d1e42009d964a001a03be00c4
:100f40005938b90059b1b80029bab9000300ca002c
:100f50000100c9005000c8001c1e42001c964a0037
:100f60000030cb005880ca00c80e78004180c8000d
:100f70000000cb007f80c80000b0cb003c1c780094
:100f80002c1c780049b1b80029bab9001938b90049
:100f90000300ca000100c9005000c8001c1e420026
:100fa0001c964a00bd1c7800ad1c78005e80ca000b
:100fb000ce0e78000000cb000010cb005880ca0095
:100fc000c80e78004180c8000000cb007f80c800b8
:100fd0000090cb000080cb003c1c78002c1c7800db
:100fe000bd1c7800ad1c78000901b1002e009000f6
:100ff00000054500808545005800ca00480e78006d
:101000004100c8003c1c78002c1c78005800ca0025
:10101000480e78004100c8003c1c78002c1c780069
:10102000be0790000080fa003400f9004400f90087
:101030004f06be004f05be004f04be000000060074
:10104000889fbe008a9fbe0001047800810478005a
:101050002a0220008b0220000000e9000080080026
:10106000140000001803be001838b90058b1b800c9
:1010700038bab9000300ca000100c9005000c80016
:101080001a1d42001a954a001803be001838b9000c
:1010900058b1b80038bab9000380ca000180c9004d
:1010a0005080c8009b1d42009b954a000000cb0069
:1010b000ba1c7800aa1c78004f05be004f04be0081
:1010c000000006000000050003f0a200889fbe009b
:1010d0008a9fbe008c1f7800a4010700ab0133007b
:1010e0006450e1004f0032006420e1005200320001
:1010f00003826c0007003b000905d0000306d00006
:10110000820f54000c065d0002003900020032001c
:1011100089017800030678008582550004003d00af
:101120000003fd008103fd008502ea008b8542007b
:10113000840f720002003b0060001000e080180085
:101140006011b8000005eb007a28e1000a003900c0
:1011500006007800c75ddd00f707b20087807500e4
:101160002d003700828171000a017800610560005e
:101170008180d1000080d3008502e900f9ff3b00a7
:10118000060440008784480002003b00600414000d
:10119000e0841c000988a300070032008a817100e6
:1011a00082817100610164008904d1000884d30048
:1011b0008b05e800170037000978a30013003a00f8
:1011c0000b00e000130034008b05e9000804440024
:1011d00089844c000a4474000978a3000d003a0089
:1011e0000b00e000070034008b05e9000804440010
:1011f00089844c0001003a000b0020000978a3000c
:10120000f7ff32000001eb0002003700828171001d
:101210000a0178001a0107000cf0a70001f0a000f5
:10122000630137006420e10002003a00838f6c0004
:10123000630133000801be000200be005c013700fc
:10124000889fbe008a9fbe008c1f78004701070060
:101250004e01330003866c006450e1002e00320022
:101260006420e100330032006150e1002f003200c1
:101270006120e1003100320085855500eb07b000a8
:10128000090020000804200005003700080444007d
:1012900089844c000a0031000603430087834b0019
:1012a0000001530081815b00f8ff33000203be00a0
:1012b0000800a0000804440089844c00f6ff3900af
:1012c000c639dd00830173000100320013002000e5
:1012d0008904d1000884d3000998a30005003200d6
:1012e0000800a7000300a0008904d1000884d300ef
:1012f0008b05e8008904d1000884d3000001eb00cd
:101300000281d200de00070001f0a1000cf0a7006e
:1013100001f0a000260137006420e100280132001e
:101320000801be000200be00f7ff37006120e100a7
:10133000230132006000b800f3ff370000002000f6
:1013400001f82700f0ff3700839f68000100e000ec
:1013500002003d0060001000e08018000300e00083
:1013600002003d0060011100e0811900c601070084
:101370004f00e00002003b0060001000e080180019
:10138000000006001400200066033700f4ff2f0061
:10139000640337000001be00df0007000470a700ef
:1013a00003f0a1006509b100160032000d00350000
:1013b0006828e10006003500f0ff2f00f1ff27004c
:1013c0000300e00013003b000100280000000500be
:1013d00000004000818048008502e900fcff3a00df
:1013e00008003700f88f420002003c008000eb004c
:1013f000000005008100d1000080d3008502e800d4
:10140000fcff3a000300e00002003b006000100017
:10141000e0801800000006000001be00be000700ca
:101420000470a70003f0a10003f8a30013003a0022
:101430006509b10010003200090035006928e1009b
:1014400002003500010028000000050000004000f7
:10145000818048008502e900fcff3a000000060098
:10146000f88f4200050035008100d1000080d300d4
:101470008502e800fcff3a00000006008000eb0057
:1014800000000500881f7800030478000300e000d6
:1014900007003d0060001000e080180060011900a6
:1014a000e081190002003b0001f02d00030037002d
:1014b0001700070008f0a70003f0a0004f04780011
:1014c00000000600881f7800030478000300e00095
:1014d00007003d0060001000e08018006001190066
:1014e000e081190002003b0001f02d0003003700ed
:1014f0003200070008f0a70001f0a0004f047800b8
:10150000000006004f89de0082017800edff370001
:10151000889fbe0000827000040271000482710086
:101520002400320036432000c50020008383cf0012
:101530000a0039000541b1008283cf00070039005d
:101540000541b1008183cf00040039000541b1009d
:101550008083cf00010039000541b10085c35300ed
:101560006022b800120032000a003b008482720040
:10157000610260008301d1000281d3008180d30029
:101580000080d3000603e8008743e800f7ff3a0035
:101590000700370000004000818048000201490038
:1015a000838149000603e9008743e900f9ff3a0017
:1015b000700207004f04be0000000600889fbe00b6
:1015c0008a9fbe00008270000402710004827100d4
:1015d000260032000004be000200be006011b80008
:1015e0006b092000950220000182cf000a0039001b
:1015f0000541b1000082cf00070039000541b1006c
:101600000982cf00040039000541b1000882cf00f3
:10161000010039000541b1000542520012003200bc
:101620000a003b0082817100610164008100d100e9
:101630000080d3008984d3000884d3008b05e800a0
:101640000442e800f7ff3a000700370008044400ae
:1016500089844c0000004800818048008b05e90027
:101660000442e900f9ff3a00050007004f05be00fb
:101670004f04be00000006006011b800cfff370025
:1016800081002000618055000b003d000b00200010
:1016900061fe2f000100e1001d0034008281710015
:1016a000610164008904d1000884d3000000e800cf
:1016b000faff3a007100200061006400030070002e
:1016c000020060000900320061044400e0844c0024
:1016d0000988a500050032008b05e8006808e100d4
:1016e00002003a008904d1000884d300f20f2000e0
:1016f0000258e10005003d00c75ddd00f907b200ba
:101700008980750008007800000006000bf82700ab
:101710008b00780000000500c70ade00f107b20068
:10172000f50fb20008003200e1cf420002003200a3
:101730000170a00024000500810f7000010032003c
:101740000408050044000500810f700002003a0003
:10175000140005008502e9000000400081c0480037
:10176000fcff3b000170a000240005000004be0047
:10177000e9ff07000003be000405be000200be0032
:10178000e5ff0700844f7500000006000200be0060
:101790006450e100050036006420e10002003600dc
:1017a0000968a30001003a000800be000160a00023
:1017b0004f0678004f05be004f04be000000060033
:1017c000f0ff2f00f1ff2700f9ff3700889fbe00d0
:1017d0008a9fbe008c1f7800e4ff0700ebff3300f8
:1017e00003866c006450e100240032006420e100b4
:1017f000270032006150e100220032006120e10048
:10180000210032008b854200eb07b1000134b800a3
:10181000003ab8000804420089844a00013ab8003e
:101820000030b8008880400009014a0004003300fd
:101830000000400081804800020149008b05e9005a
:10184000c909dd008301700001003200130020008f
:10185000c814de004814dd004709de001200b200a3
:10186000c808de000884700085ff070001f0a100b1
:101870000cf0a70001f0a000cdff37006120e100cf
:10188000cfff32000801be000200be00f7ff3700a4
:101890006150e100fcff3a00c9ff37001400fa0074
:1018a000889fbe008a9fbe008c9fbe000004be00c1
:1018b0000205be00680047000a90be000890be0006
:1018c000d80107000078a3003d003a006100e10064
:1018d0003c0032000bf8a3003d003a006400e10038
:1018e000380032006c0347001e009000f03fb1004a
:1018f0003602be001603be000008a300040032003a
:101900000402420085824a0006034b0087834b0095
:10191000100798008e1f78006000b8006011b800b2
:101920005c0020006d0120006e00200002003700e6
:101930008d86e900fc0020000402420085824a00f6
:1019400006034b0087834b0000044000818448005d
:1019500002054900838549006060e1001d60ad001b
:101960000804520089845a000a055b008b855b00dd
:10197000030039001e60ad000802be000a03be006d
:101980000c06e900ecff3b000e87e900e8ff3b0096
:101990004f07780061026000840278008301d10063
:1019a0000281d3008180d3000080d3001e03900009
:1019b00041b3de00f63fb0006e010700d4013700ee
:1019c0000b30a0000800be000a01be00d0013700a5
:1019d0001202200052458800ca0137001400fa00a4
:1019e000889fbe008a9fbe008c9fbe000005be007f
:1019f0000206be00680047000c90be000a90be00c0
:101a0000880107006400e1001a00320016003e0061
:101a10006100e1001a0032006e049000fe049000a4
:101a20000e0b90009e0b90006011b8009e05900078
:101a30000b38b100d5012000828171006101640082
:101a40008703d1000683d3008984d3000884d300a0
:101a50008502e900f8ff3a0009ff07000df0a70032
:101a600001f0a000aa013700f1ff2700f0ff2f00ce
:101a7000a701370001f8270000002000f7ff37001a
:101a80006000b800f5ff37006022b80006022000b1
:101a90000000d0008180d2000482d2008582d20072
:101aa0000000a0000202520083825a0003003100ad
:101ab0000202420083824a000000a1000603e900fe
:101ac000f3ff3a0000000600889fbe008a9fbe0018
:101ad00030044200b0844a0030054b0090854b0032
:101ae0006000b1000898be000a90be000440e1000a
:101af00005c8e10006d0e10007d8e100020031008e
:101b0000680040001008e8004f05be004f04be000a
:101b100000000600889fbe008a9fbe003004be0001
:101b20002005be000418540005985c0006185d00ee
:101b300007985d00110020000440e10005c8e100a5
:101b400006d0e10007d8e100010039008000eb0079
:101b5000108810004f05be004f04be0000000600b4
:101b60001200fa00889fbe008a9fbe008c9fbe00b4
:101b7000e0b79f00f1b79f0082bf9f0093bf9f0017
:101b80000605be000404be000000eb00d0b79f00b5
:101b9000c0b79f00b0b79f00a0b79f0090b79f004d
:101ba0000006eb005fb19700cfb0970082014100c3
:101bb0003fb097000200e00004003d00370007003e
:101bc0007e805700c0ff0700030037003300070086
:101bd0007e805700cfff0700dfb697000d00e000c2
:101be0000c0035006fb29700ffb297000fbb970053
:101bf0009fbb970010002000010020006011b8007a
:101c000000027200818272000203730083837300fa
:101c10001b0007000c06e80001042000810f56009d
:101c2000e0ff3a000d00e00004003d000802be00a5
:101c30000a03be007e805700a3ff07005fa897003d
:101c40000000e00005003a001fb29700afb2970015
:101c50003fb39700cfb39700090007006fb097001c
:101c6000ffb097000fb997009fb997004f06be00cd
:101c70004f05be004f04be000080fa0000000600c1
:101c80000100070000000600a4b79f00b5b79f0041
:101c9000c6b79f00d7b79f00000006004f09de00bf
:101ca00082817100b3b79f004f01de008180400048
:101cb00082807000a1b79f008fb097004f09de00af
:101cc000000040000200700090b79f007fa89700be
:101cd0004f01de00818040008280700081b79f004c
:101ce0000d0007004f3ade000000400004007000c5
:101cf000f0af9f00080007000402420085824a00fe
:101d000006034b0087834b00dfff07000802be007d
:101d10000a03be00000006002fb29700bfb2970072
:101d20004fb39700dfb3970000000600881f7800cc
:101d300018002000881f780089ff07008f87e900be
:101d40004f04780000000600801feb0084ff0700ae
:101d50008f87e90000000600889fbe008a9fbe00b2
:101d6000e00f5000e08f5800e00f5900e08f59005d
:101d70000c003d006044b8006055b80000005400fd
:101d800081805c0002015d0083815d0018002000fd
:101d90001500070008003d00180007000004eb00d4
:101da000050037000004eb000f00070002003d00b3
:101db0001200070018002000dcff07000800e00008
:101dc000060032006022b8006033b8000000520004
:101dd00081805a0002015b0083815b004f05be00d9
:101de0004f04be0000000600e00f5200e08f5a00d2
:101df000e00f5b00e08f5b00000006006044b8006d
:101e00006055b8000402540085825c0006035d0042
:101e100087835d0000000600889fbe008a9fbe0089
:101e20008c1f7800e00f5000e08f5800e00f590041
:101e3000e08f59000d003d006044b8006055b800c7
:101e40000000540081805c0002015d0083815d0020
:101e50001c0020000820e10009a8e1000ab0e10010
:101e60000bb8e1000d003d00080037000006eb0054
:101e7000e00f5200e08f5a00e00f5b00e08f5b0044
:101e800006003d006044b8006055b80004025400ec
:101e900085825c0006035d0087835d00aaff070062
:101ea0000c00e000060032006022b8006033b80089
:101eb0000000520081805a0002015b0083815b00b8
:101ec0004f0678004f05be004f04be00000006001c
:101ed000889fbe008a9fbe008c1f78000006eb0022
:101ee000e00f5000e08f5800e00f5900e08f5900dc
:101ef00007003d006044b8006055b8000000540081
:101f000081805c0002015d0083815d001c00200077
:101f1000e00f5200e08f5a00e00f5b00e08f5b00a3
:101f200007003d006044b8006055b800040254004a
:101f300085825c0006035d0087835d000c00a200c3
:101f4000930007000c00e000060032006022b80099
:101f50006033b8000000520081805a0002015b002b
:101f600083815b004f0678004f05be004f04be0022
:101f7000000006001800200057002000080453004d
:101f80000d003d000600200097fc2f000740e100f7
:101f90001e00340084827200610260008301d1005f
:101fa0000281d3008180d3000080d3000804e800c0
:101fb000f8ff3a0047002000610460000504740047
:101fc000040464000d00320061004000e08048001d
:101fd00060014900e081490003b8a5000700320014
:101fe0000603e8006538e10004003a008301d100ef
:101ff0000281d3008180d3000080d300f87f2000cd
:102000000830e10003003500080378006000b800e4
:102010006011b8004433dd00f300b20083017300a7
:1020200000000600800078005002be005003be0091
:102030004439de00f700b200f37f200003016100a5
:10204000090032000218e10016003a008501720012
:1020500083017300838173000008200015003a009b
:1020600040002000130037008501720083017300d7
:102070008381730005003a0004a8be0006a8be00d4
:10208000100020000b0037000201e90004024200aa
:1020900085824a0006034b0087834b000748a30054
:1020a000f9ff32000740a00004a8be0006a8be0049
:1020b0002000200080009800920098000000060098
:1020c000680447000294be000094be00fc04470070
:1020d0008694be008494be0009007800d1ff0700fa
:1020e00008007800cfff070099007800814f70004a
:1020f0000b003b000800be00470007004f00b10086
:1021000003003700f3ff2700f2ff2f006110b90032
:102110004f06be004f05be004f04be000080fa000f
:1021200000000600889fbe008a9fbe00841f7800c2
:102130008efd07004f00780011003300f0ff2f00e4
:10214000838f6c0006003b00040565000a00a700b1
:102150000800370009f0a600100020000800370032
:10216000820f5400838f5c000300390010002000b0
:1021700001003e000000200009f0a7000000ea0076
:102180004f05be004f04be000000e0000000060046
:10219000889fbe008a9fbe008c9fbe000404b800ca
:1021a0000506b8008904460060854e000606b800a2
:1021b0000a054600e0854e000706b8008b0546007c
:1021c000040eb800890446000a854e00e0854d00e3
:1021d000050eb8000a0546008b854e00060eb800b5
:1021e0008b0546000416b8000a0546008b854e0094
:1021f0000516b8008b054600041eb8008b05460086
:102200000800be000a01be004f06be004f05be001a
:102210004f04be0000000600e48240001078a300d6
:1022200007003200640240001178a3003400be00b1
:102230001401be00040032000330a70000000600b5
:102240003500be001501be000330a00000000600ee
:1022500000037800810278008501780001003700d2
:1022600004037800110009008281d8008001780001
:102270000602e8000300e000f9ff3a00034a780094
:10228000110009008282d8000002780081417800a4
:1022900084027800e9cf510001003400e7c1410019
:1022a00001c3b30001d341000400e000f4ff3a0091
:1022b0000600780000000600881f780000047800ff
:1022c0000100e00005003d0008007800d3c2b30023
:1022d000035878008100ea00010037000800780008
:1022e000dbff0700080078004f04780000000600bc
:1022f000889fbe008a9fbe008c9fbe00800578002c
:102300000204be00010578000200be000100370093
:10231000820578006156b9000c01be00dafd0700a5
:102320000b01e800e00f5000e08f5800f8ff3a0082
:102330000049eb000c01be000800be00fc080700cd
:10234000004578000c01be000800be00cefd07006d
:102350000004be00e94f5500010034006745450008
:1023600000c3b30080554500e00f5400e08f5c00cf
:10237000f0ff3a000b0078004f06be004f05be008c
:102380004f04be0000000600881f7800000478009b
:10239000e00f5100e08f590006003d000800780072
:1023a000d4c2b3000458780060011100e081190024
:1023b0000100370008007800cdff07000800780012
:1023c0004f0478000000060080017800020037000a
:1023d000815978000201e9000200e000fcff3a00a8
:1023e00000000600800078003104e000feff3a00a3
:1023f0000080ea000080400000000600e6874700f9
:10240000889fbe008a9fbe008c9fbe008e1f7800f2
:1024100081067800820478008000eb005145880036
:102420000d00e00001003200800e78000005780009
:10243000ba4078000a0478000100fb0081bf9f00c9
:10244000f2f807008fb897000000e000f8ff3a00ac
:10245000d0c2b30080cf500003003a00b8407800eb
:102460001ec0b300050037000047eb00b0c2b30048
:1024700080cf500001003a00b840780000c3b3009c
:1024800080cf500012003a00b84078000900e00008
:1024900002003200f08f540058003a0080c7b300a9
:1024a00080cf50000300320080c5b30080cf5000c1
:1024b00003003a00b8407800090120004f003700bf
:1024c0000900e0004d003a00890020004b00370071
:1024d0000046eb000900e00002003a000046eb0075
:1024e000a90020006055b8000101fb00020078003f
:1024f00081bf9f00f2b79f00b4f807008fb8970024
:102500007fb197000000e000050032000200780073
:10251000c6f8070091ccb300014240000500370027
:102520000203b100e90f51001e003e0004cdb300cc
:1025300004c240000400fb00890f500019003d0058
:102540000402fb00cfa2de006149b9000a00be0010
:10255000f4b79f0085bf9f00780807007fb29700ff
:102560008fba970004024000858248000800e80006
:10257000840f5500858f5d00050036002102200084
:10258000514588000004780010c0b30006003700f1
:1025900098407800000478000405be001cc0b30019
:1025a000d1ff37000040eb000c04e00003003200d4
:1025b0000d00e00001003200880ee900e14f5000fc
:1025c000050032000e04e000050032006005150031
:1025d000e0851d00020037000085eb008085eb00e0
:1025e0000a00be004f0778004f06be004f05be0030
:1025f0004f04be006f00b100000006001cc0b30015
:10260000b8ff3700889fbe008a9fbe008c9fbe0027
:102610008005780081047800820678000000eb00d5
:10262000504588000b0678000c0578000a067800f3
:102630003c4478000800fb0074f807000000e0004c
:10264000f9ff3a00d0c2b300804f540003003200bb
:1026500000c0e900804f540002003a000a05e8007b
:1026600001003700004478000d01780089007800ef
:102670000a00780061ff07000900e000070032004f
:10268000990f550024003a008b0c78002200370087
:10269000e00f5000e08f58000f003a00b2c2b300c4
:1026a000824f540004003a00e00f5000e08f5800c1
:1026b00015003d0008003700d2c2b300824f54001d
:1026c00011003a000200200003002800820f500091
:1026d000838f58000a0036002002200050458800f1
:1026e000f0ff2f00f1ff2700d2c2b300824f540049
:1026f00005003a0000002000010028000200370019
:1027000060001000e08018004f06be004f05be00bc
:102710004f04be0000000600998f5500dfff3a000d
:10272000dbff37000000fa0068815700cfb8970040
:10273000605e2400ca0007000080fa000000060066
:102740000800fa00889fbe008a9fbe000084fb003c
:10275000d1c6b300814f5000340036004b06200034
:10276000110009000b84d800810578007200400038
:102770004300dd00094b2400008044006022b800c3
:102780000600200007fe23005001be004000be00ee
:102790006f0707000002be000203be0084bf9f0057
:1027a00095bf9f00a6bf9f00b7bf9f00aa00200053
:1027b000110009008a85d80080057800e985450068
:1027c000c35ddd008b8544003b02be002b03be00d1
:1027d0000fb897009fb897002fb99700bfb997001f
:1027e0005b0707000002be000203be0084bf9f001b
:1027f00095bf9f00a6bf9f00b7bf9f0011000900b3
:102800000a84d800010478004344dd008884440031
:102810003902be002903be000fb897009fb8970089
:102820002fb99700bfb997001d003700ea4f50003d
:1028300013003600aa002000110009000a84d80005
:1028400001057800690440004344dd00094b240081
:10285000088444006022b8000600200007fe230020
:102860003800be002801be00390707004355dd00cf
:102870008a8444003902be002903be0008003700e4
:102880004344dd00004b2400080440006022b800ef
:102890000600200007fe23003800be002801be000d
:1028a0002b0707004f05be004f04be000080fa0052
:1028b000000006000800fa00889fbe008a9fbe0044
:1028c000d1c6b3000004e00023003d000040ea0050
:1028d0000004fb00814f50000a0034004206200033
:1028e000110009000204d800a9002000110009000d
:1028f0008900d800e9004000c308dd000a4b24002d
:1029000021003700ea4f500010003400a2002000e0
:10291000110009000204d80001017800690040009c
:102920004300dd00014b2400008040004311dd0026
:10293000828040003102be002103be005001be0073
:102940004000be0002070700380037004344dd00a6
:10295000004b2400320037000004fb00814f500080
:102960002300340042062000110009000204d800b0
:10297000a9002000110009008900d800e9004000ea
:10298000c308dd000a402400810045003102be007a
:102990002103be008b0920008a8545003b00be0054
:1029a0002b01be00ea0607000002be000203be00c3
:1029b00084bf9f0095bf9f00a6bf9f00b7bf9f0029
:1029c000110009000904d800010478004344dd0027
:1029d000080545003a02be002a03be000fb8970062
:1029e0009fb897002fb99700bfb99700d5ff370060
:1029f000ea4f500008003400a20020001100090036
:102a00000204d80001017800690040004300dd00a5
:102a100001402400c4ff37004344dd00004024008f
:102a2000080440003800be002801be004f05be006b
:102a30004f04be000080fa0000000600d0019000a4
:102a4000028151004240a9000300340010017800c7
:102a5000014978000208e800010078000000060043
:102a60006f02b000889fbe008a9fbe008c9fbe0090
:102a70008e1f780000067800b1af9f0092b79f00cc
:102a80006000b8006011b800d0af9f00e1af9f00b8
:102a9000f2af9f0083b79f008006eb00c5043700ac
:102aa000bfa897008100e800b1af9f0051c2b300fa
:102ab000814f500003003a00bfa897000007eb00c9
:102ac00011003700bc0090000000fb000168a3006b
:102ad000070032000d017800800078000c007800bb
:102ae000d6ff07000000e00005003a00b1043700ff
:102af0008c007800bb040700e10f4000ad043200f9
:102b00008d06e800ab043700010178003140780001
:102b1000d3c2b300834f50000c00320007003c00ca
:102b2000edc15100834f50000a003200ebc141005b
:102b3000834f50000d003a000800370003c3b30074
:102b4000834f500009003a00060037000e30a00005
:102b5000edff37000e00a000ebff37000e10a000c5
:102b6000e9ff37000e20a000e7ff37000e18a30092
:102b7000010032000e00a1000e38a3000100320057
:102b80000e20a1008000fb000103b100e98f50007e
:102b90000c003e00020078008005eb006a59b90085
:102ba000b005fb000b03b1008285450000017800f1
:102bb0009000fb000103b100e98f5000f7ff3600e1
:102bc000080037008005eb00a1c2b300814f500020
:102bd00004003a009fb19700c305780093b79f00a7
:102be0000201e800e0c2b300924f100016003a0064
:102bf0000ee0a00064405000d24f100003003200ed
:102c0000020078008001eb00080037009fb29700b7
:102c10004503780095b79f00e6b79f000201e800e2
:102c20000c0037006a19b900828140000001780069
:102c3000b000fb000103b100e98f5000f9ff36003e
:102c4000e3b79f00030037000ec0a0008003eb0035
:102c5000e7b79f00820178003340780003017800d5
:102c6000c1c6b300814f50002b003200b3af9f00ac
:102c700014003c00e8c05000814f50002400320096
:102c800009003c00ecc05000814f50002a00320087
:102c9000ebc04000814f50008c0032000004e00087
:102ca00049043200a200370061c6b300814f5000d2
:102cb0001b003200e3c04000814f50009c003a00ee
:102cc0001300370031c7b300814f50001e0032009f
:102cd00007003c00e4c05000814f50001300320058
:102ce0008140e800814f500091003a001200370007
:102cf00051c7b300814f500092003200e3c0400042
:102d0000814f50008a003a00e0cf9f000c0037004e
:102d1000e0cf9f008d0037000e40a000cdff3700b0
:102d2000e0cf9f000ea0a00088003700e0cf9f00fa
:102d30000e60a00085003700e0cf9f000e50a0007d
:102d40000e70a00081003700e0cf9f009fb0970079
:102d50004100780091b79f00000478000000e00077
:102d600001003a0028582400880078000000eb0099
:102d7000010037000000e800614178000204e00033
:102d8000fcff3a00800478006fb197000200e00079
:102d900003003200890f51000100310082047800e5
:102da0000005eb00898f55000100360009855500ac
:102db000680767002a003a00110037003c009000c5
:102dc0000068a300070032000d0178000102200016
:102dd0000c00780019ff07000000e00006003a0030
:102de000060037008c00780000022000fd03070079
:102df000e10f4000010032008d06e8000a05e900fd
:102e00000a00e000edff3a000085eb0014003700f7
:102e10003c0090000068a300090032000800780020
:102e2000b000fb00000478000d0178000c00780071
:102e300002ff07000000e00008003a000800370029
:102e4000880078003100fb00010478008c007800d5
:102e5000e4030700e10f4000010032008d06e800a6
:102e6000090078008004e9000000e000e8ff3a0073
:102e70000e00e000cf033200110037003c0090004c
:102e80000068a300070032000d0178000102200055
:102e90000c007800e9fe07000000e00006003a00a0
:102ea000060037008c00780000022000cd030700e8
:102eb000e10f4000010032008d06e8000a05e9003c
:102ec0000a00e000edff3a00ba0337009fb1970017
:102ed0004302780093b79f00cfa2de00482bdd00ad
:102ee0004820de0000007300c828de00e0cf9f000d
:102ef0000e48a300080032000004e0000600320083
:102f0000e14f400004003200f0cf9f0084d79f00c3
:102f10002900200002003700f4cf9f001900200094
:102f2000e7fc2f008f8343000704e80096ff37007b
:102f3000e0cf9f00e8fc2f000f04440019002000a0
:102f400091ff3700e0cf9f000e0cb300017020000e
:102f500081006700700067000100e0001902320084
:102f60000ec8a3000200320061002000e1b79f00fc
:102f70000000e000060032001fb09700680050001b
:102f80003002be002003be0090b79f00060037004d
:102f90001fb197004200be0092b79f00fd040700da
:102fa0000002be000203be00a4b79f00b5b79f0099
:102fb000c6b79f00d7b79f006022b8006033b80043
:102fc0002fb09700bfb097004fb19700dfb19700c7
:102fd000870407000000e0000a003d002fb09700c2
:102fe000bfb097004fb19700dfb1970003f0a20088
:102ff000a0b79f00b1b79f00c2b79f00d3b79f0093
:103000003e00b3000000eb0090af9f006022b800cc
:103010006033b8002fb09700bfb097004fb1970052
:10302000dfb19700d60407000000e0003400320052
:1030300024fd2f000f0242002fb09700bfb0970071
:103040004fb19700dfb19700240507001fa8970034
:103050000000e9006302b900a2002000110009008d
:103060000202d80090af9f000000e00002003d0087
:103070000000e90090af9f001fac97000840ea00f5
:103080000cfe07002fb29700bfb297004fb3970016
:10309000dfb397002e0507000002be000203be004a
:1030a000d4af9f00e5af9f00f6af9f0087b79f00aa
:1030b0006022b8000600200007ff23004c04070030
:1030c0000000e00002003d000804e9000b003700aa
:1030d0006022b80006002000470224005fa8970085
:1030e000efa897007fa997008fb1970045040700cc
:1030f0000000e000020035000804e80098af9f00df
:10310000efb29700ec8f52000f003c0005407800b2
:103110008bfd07000002be000203be002fb0970027
:10312000bfb097004fb19700dfb19700b20307001f
:103130000002be000203be00a4b79f00b5b79f0007
:10314000c6b79f00d7b79f001fac9700e90f540088
:1031500015003c006022b8006033b8002fb0970023
:10316000bfb097004fb19700dfb19700840407000c
:103170000000e000310032002fb09700bfb0970090
:103180004fb19700dfb19700a1040700e00f500096
:10319000e08f5800e00f5900e08f590027003a00f7
:1031a000e10f5400250034000400200005002e002b
:1031b000b6e02200170124005fa89700efa897004f
:1031c0007fa997008fb19700090407000000e00075
:1031d00002003d00690454000100370068045400f7
:1031e00098af9f002fd09700b2fd07000002be00ed
:1031f0000203be00d4af9f00e5af9f00f6af9f0073
:1032000087b79f002fb09700bfb097004fb19700ce
:10321000dfb19700000407007d0407000004be0032
:103220006000b8006011b800a0b79f00b1b79f0060
:10323000c2b79f00d3b79f00160037002fb097008a
:10324000bfb097004fb19700dfb19700700407003f
:103250000004be009f0407000002be000203be007f
:103260002fb09700bfb097004fb19700dfb1970024
:103270002d0507000002be000203be00a4b79f0098
:10328000b5b79f00c6b79f00d7b79f000000eb00ff
:1032900090af9f00a158240010c0b3000500370074
:1032a000e4804000b10f5400a18f5c00030039009e
:1032b0000040e800ea4f5000f9ff3a00e0cf9f00dd
:1032c0009fa8970081805500efb29700858050003d
:1032d0000005fb000a8550000500e00001003200f7
:1032e0000a05e90063006700010032000a05e900f1
:1032f0000e28a30039003200610167000e18a300f8
:103300000f0032003c0090000068a300060032006d
:10331000b10220000200e000010032008180e800dc
:103320000d0178000d003700b00220000200e0001f
:10333000010032000080e8008c0078000e003700a9
:103340000200e000220032003c0090000068a30070
:10335000070032000d017800010220000c00780007
:10336000b6fd07000000e00006003a001800370034
:103370008c007800000220009a020700e10f400054
:10338000130032008d06e800110037003c00900069
:103390000068a300070032000d017800010320003f
:1033a0000c007800a5fd07000000e00006003a00d0
:1033b000060037008c007800000320008902070017
:1033c000e10f4000010032008d06e8000a05e90027
:1033d0000a00e000edff3c00570037000e38a30064
:1033e00014003a00110037003c0090000068a30070
:1033f000070032000d017800010220000c00780067
:103400008efd07000000e00006003a0006003700cd
:103410008c0078000002200072020700e10f4000db
:10342000010032008d06e8000a05e9000a00e0000c
:10343000edff3c00610167000e18a3000e00320092
:103440003c0090000068a30005003200b10220009b
:103450000200e000220032008180e80020003700f6
:10346000b00220000200e000010032000080e8000d
:103470008c0078002c0037000200e0002e003200a3
:103480003c0090000068a300030032000d017800aa
:1034900001022000130037008c0078000002200099
:1034a000210037003c019000a05824008100fb005f
:1034b0000268a30010003200c208dd008100400055
:1034c0001101be000800be006ff90700a200200035
:1034d00003002000960407000103200080804000c4
:1034e0000d0178000c00780054fd07000000e0009a
:1034f00010003a0010003700c208dd0081004000d3
:103500001101be000800be005ff90700a200200004
:103510000300200086040700020320000001410090
:103520008c007800020078002e020700e10f4000b6
:10353000010032008d06e8006fc897008040e90066
:10354000e1cf9f000004e000d6ff3a0013003700ef
:103550003c0090000068a300070032000d017800d5
:10356000010320000c00780034fd07000000e0009b
:1035700006003a00060037008c00780000032000a7
:1035800018020700e10f4000010032008d06e8003c
:103590001fa897000000e90090af9f001fa89700a8
:1035a0000000e000eaff3c006fb39700e80f530013
:1035b0000300340080c0b300e0cf9f00020037005a
:1035c000cfeb9700e7cf9f006fc897008005fb0007
:1035d000efb097008b8550000004e000100032002f
:1035e0003c0090000068a300070032000d01780045
:1035f000e10220000c00780010fd07000000e00050
:1036000006003a00060037008c007800e002200037
:10361000f4010700e10f4000010032008d06e800d0
:103620006fc89700a3fc07000002be000203be00a3
:103630002fb09700bfb097004fb19700dfb1970050
:10364000c3030700720307002d0037003c01900000
:10365000a15824000000fb000268a3001000320003
:103660004200dd00808040001101be000800be0065
:1036700005f90700a2002000030020002c04070029
:1036800001032000808040000d0178000c007800cc
:10369000eafc07000000e00010003a0010003700cc
:1036a0004200dd00808040001101be000800be0025
:1036b000f5f80700a2002000030020001c0407000a
:1036c00002032000000141008c0078000200780015
:1036d000c4010700e10f4000010032008d06e80040
:1036e0006fc997000200fb004200dd00a1582400d2
:1036f000008040001001be000800be000c0407005e
:103700000004be00efc897000140e900e0cf9f0031
:103710000104e000cdff3a00110037003c009000aa
:103720000068a300070032000d01780001032000ab
:103730000c007800c1fc07000000e00006003a0021
:10374000060037008c00780000032000a501070068
:10375000e10f4000010032008d06e8008b05e90012
:103760000b00e000edff3a000e38a300910132009b
:103770000a00e0008f0134003c0090000068a300c4
:10378000070032000d017800010220000c007800d3
:10379000aafc07000000e00006003a00060037001f
:1037a0008c007800000220008e010700e10f40002d
:1037b000010032008d06e8000a05e900eeff3a003c
:1037c0007c0137008e007800010cb20011003a0035
:1037d0000000e000040032009fb197004304be00e7
:1037e00093b79f00040037001fb29700440478008d
:1037f00094b79f00cfc4de00e00f5400e08f5c0060
:103800000e003d003e00b30060041400e0841c0084
:103810000a0037000000e000040032009fb2970069
:103820004504be0095b79f00040037001fb3970002
:103830004604780096b79f008004eb00efb3970032
:103840000700e00006003a000880740000f0a700be
:103850000000ea000000e9004f00de00e0b79f0032
:103860000e007800000cb200c0af9f0000042000e2
:10387000cfa89700808f50002300320003003c0047
:103880000100e000080032002d0037000008200091
:103890004fa99700800f51000d003200000c20004e
:1038a000800f510026003a00a158240010c0b30038
:1038b000e4804000b10f5400a18f5c001f0039006c
:1038c0000040e800ea4f5000f9ff3a001b003700c3
:1038d00010c0b3000201200003002000820f54003a
:1038e000838f5c0015003900441add00cc11de0026
:1038f000830172004411dd000040e800e84f5000f1
:10390000f6ff3a000d00370010c0b300820020001f
:1039100003002000820f5400838f5c0007003900f1
:10392000c31add00cd11de00838172004311dd007a
:103930000040e800eb4f5000f6ff3a00e0cf9f0058
:103940006fcb97000600fb00efb39700870f500086
:1039500002003d00e7cf9f0004003700efb0970062
:10396000808f500001003d00e0b79f000b00e00099
:103970000300320063006700010032008b05e9009c
:103980000ee8a300060032006fb19700828f550049
:103990000200340082855500010037008005eb00ed
:1039a000efc997000300fb000002eb00a4b79f00e3
:1039b000808f55000200340000805500a0b79f00a2
:1039c0000e28a3003c003200610167000e18a3001e
:1039d0000f0032003c0090000068a3000600320097
:1039e000b10220000200e000010032008180e80006
:1039f0000d0178000d003700b00220000200e00049
:103a0000010032000080e8008c0078000e003700d2
:103a10000200e000100032003c0090000068a300ab
:103a2000070032000d017800010220000c00780030
:103a300002fc07000000e00006003a000600370024
:103a40008c00780000022000e6000700e10f400033
:103a5000010032008d06e800afb297000500e000db
:103a600052003200050578003c0090000068a30079
:103a7000070032000d017800010320000c007800df
:103a8000eefb07000000e00006003a0006003700e9
:103a90008c00780000032000d2000700e10f4000f6
:103aa000010032008d06e8000a05e900eeff3a0049
:103ab000aab79f003d0037002fb397000600e00033
:103ac000160032000e38a30014003a0006057800f4
:103ad0003c0090000068a300070032000d01780050
:103ae000010220000c007800d4fb07000000e00079
:103af00006003a00060037008c0078000002200023
:103b0000b8000700e10f4000010032008d06e80018
:103b10000a05e900eeff3a00aab79f0061016700bd
:103b20000e18a3000f0032003c0090000068a300b4
:103b300006003200b10220000200e0000100320065
:103b40008180e8000d0178000d003700b0022000f0
:103b50000200e000010032000080e8008c007800e4
:103b60000e0037000200e000100032003c00900020
:103b70000068a300070032000d0178000102200058
:103b80000c007800adfb07000000e00006003a00e2
:103b9000060037008c00780000022000910007002a
:103ba000e10f4000010032008d06e800efb39700fe
:103bb0000702e9006320b90000017800a2af9f006e
:103bc0004222dd00a05824000002420004057800d3
:103bd000cfad97005c003700efb197008301e9009b
:103be000e3b79f0000042000808f550037003200ab
:103bf00003003c000b00e000070032003d003700ee
:103c000000082000808f550020003200000c2000aa
:103c1000808f550037003a000e48a3001000320094
:103c20001a02be000401be000800be00f4b79f00e7
:103c300085bf9f0094f70700e0cf9f000000fb00c6
:103c4000cf80de007fb297008fba97000401be00dc
:103c5000ba0207000004540081845c0007003700aa
:103c60001a017800110009000284d800a200200087
:103c7000110009000280d800e1cf9f006fca9700b1
:103c80000443b000e4cf9f001a003700105724000f
:103c90000e58a3000100320000562400a158240051
:103ca000810055000801be008100e90003003300d7
:103cb0008301d1000281d300fbff37006f01610057
:103cc00060417900e2cf9f000a0037000800be0083
:103cd000afaa97008502e900030033008100d100fc
:103ce0000080d300fbff3700674060000043b00056
:103cf000e0cf9f00bc0090006fcb97000600fb0058
:103d00000168a300070032000d01780080007800f0
:103d10000c00780049fb07000000e00005003a00b5
:103d2000050037008c0078002e000700e10f4000ee
:103d3000010032008d06e800afab9700e38353002b
:103d4000a7af9f00640555006fb097000000e0002a
:103d5000a1ff3a000e38a30016003200afb0970062
:103d60000100e00013003400010578003c009000e1
:103d70000068a300070032000d0178000102200056
:103d80000c0078002dfb07000000e00006003a0060
:103d9000060037008c0078000002200011000700a8
:103da000e10f4000010032008d06e8000a05e9003d
:103db000eeff3a003fa9970012407800e0cf9f0045
:103dc0000004e00036fb3a000d0078004f07780051
:103dd0004f06be004f05be004f04be006f02b1008b
:103de00000000600889fbe0001047800b800900023
:103df0008084eb000118a3003a0032001801900003
:103e00000198a30002003a000200e00035003a00e9
:103e10000190a0003104980080047800f90fb200ee
:103e20000200e00002003a0028009000000c780038
:103e3000ea8f540005003a000178a30003003a001d
:103e400088007800d0002000e6ff070018009000ee
:103e5000d8009000810f50000b0032000000e800f5
:103e6000100498001800780009487800000ce80059
:103e700011c0b300c063240001487800ea8f5400e9
:103e800018003a00050037008800780009407800e3
:103e900017000700800478001200370038009000f7
:103ea0000088a3000f00320018019000a8009000c5
:103eb0004800900064f2070098009000810f5000c5
:103ec00004003200380090000003b3003004980072
:103ed0008084eb000000eb001004980028009000a4
:103ee000000c7800090078004f04be0000000600b6
:103ef0000200fa00889fbe00a0ff9f000104780026
:103f0000380090000068a30033003a00e20060002f
:103f100005003a000003b300300498001104980033
:103f20000080eb002e003700d80490000900e0006c
:103f300006003a0012002000e6805700480090007a
:103f400041f207001904980023003700a8009000f0
:103f50000100e00008003a00f16324002104980009
:103f6000010c7800210020005104980011049800f1
:103f70000030a0003004980018019000a8009000c4
:103f80004800900030f20700280090008080eb008d
:103f900011049800aff8970001487800000ce80081
:103fa0002ff89700ea4f50000b003a0038009000bd
:103fb0000088a3000800320018019000a8009000bb
:103fc0004800900020f207000000eb001004980069
:103fd000a8009000010c7800aff897000100fb00ea
:103fe0004f04be000080fa000000060000c0da00a6
:103ff00000000600000000002800fa00889fbe00b4
:104000008a9fbe008c9fbe000706780087866900e5
:104010000c003b00030478008704780008f0a1003e
:1040200009f0a100840f5000858f5800860f5900b9
:10403000890f5c00030033000cf0a20001003a007d
:104040000cf0a1001ef807006400e1005f003200e0
:10405000780147006408e100610032006c0147000c
:10406000748557003200be001201be003a04be0043
:104070001a05be001e039000be0a9000850353007f
:1040800006003d000004fd008104fd000205fd0066
:104090008305fd008703ea00050378000df8a300ff
:1040a0000400320060041400e0841c0060051d0060
:1040b000e0851d006022b8007d0320000d38e1007e
:1040c0008006eb000b0039004433dd00f300b20042
:1040d0008301730039003700848272000d0278007a
:1040e000e10664008b85d1000a85d3008984d30062
:1040f0000884d3008703e900f7ff3b000800400075
:10410000898048000a0149008b81490004003b0076
:1041100060001000e080180060011900e0811900c3
:104120000358a300090032008d827200848272005d
:10413000610260008301d1000281d3008180d3003d
:104140000080d3000603e8001b0037000348a300eb
:1041500017003a000600e000170034000603e900eb
:104160000d00a300000048008180480002014900c2
:10417000838149000348a3000f003a000600e000d5
:10418000090034000603e900000040008180480077
:10419000020149008381490001003a000003eb005d
:1041a0000348a300f5ff32006022b8000200370088
:1041b00084827200618266006ef7070003f0a1003e
:1041c0000cf0a70003f0a000d1f73700640147000e
:1041d0006408e10002003a000df8a300c9f73a00b4
:1041e0003200be001201be00c9f737000000000017
:1041f0008f1fd100570107008f87e9000000e00002
:1042000000000600809feb00520107008f87e90045
:104210000000e000000006002800fa00889fbe00b1
:104220008a9fbe008c9fbe0003866b00a4f7070028
:104230006400e100440032006408e1004a003200fa
:104240006100e100460032006108e10049003200ef
:10425000ec0647006000b8003d02be003d03be0012
:10426000f48657006011b8003d04be003d05be0055
:104270007d0320000b0037000000a0008d06e90040
:10428000130032000402420085824a0006034b00fc
:1042900087834b00000040008180480002014900f4
:1042a000838149000802520089825a000a035b0098
:1042b0008b835b00f0ff3b000802420089824a00ca
:1042c0000a034b008b834b008d06e900edff3a009b
:1042d0008482720086827200f707b20087827200c1
:1042e00001003200150020001e0490003e0b9000db
:1042f00006035400e63fb0000368a3000700320045
:104300000000a7000500a0008301d1000281d300b6
:104310008180d3000080d3000603e8008301d10030
:104320000281d3008180d3000080d3000002eb0023
:104330000482d2000ff7070003f0a1000cf0a700e1
:1043400003f0a00072f73700640247006408e10040
:104350006cf732003400be003401be00f6ff3700b7
:104360006108e10067f732006011b8006000b80032
:10437000f1ff370003ff270002002000fbff37009a
:10438000801feb00f30007008f87e9000000e000ca
:104390000000060081037800dff407000001be0082
:1043a0006000b8000478a30013003a006220e10026
:1043b00015003e000d0039008301d1000281d300b9
:1043c0008180d3008301d1000281d3008180d3009a
:1043d0008301d1000281d3008180d3000538b00071
:1043e000c42add00f300b2008381720007f0a70049
:1043f00003f0a00000000600f3ff2700f2ff2f00eb
:104400006110b900fbff370003ff2700f7ff3700fb
:104410001400fa00889fbe008a9fbe008c9fbe00d9
:104420000004be000205be00680047000a90be00fe
:104430000890be00fbf607000070a7000bf0a1007b
:104440000bf8a30020003a009e0990000e0990008e
:10445000fe0090006e0090009e0290003443200009
:10446000848252002af732000a003c00b4fc2f007c
:104470000428e100140034008301d1000281d3003c
:104480008180d3000080d3008502e800faff3a0063
:104490001ff73700b40020000428e10007003c00ab
:1044a00000004000818048000201490083814900ea
:1044b0008502e900faff3a0015f7370003002800eb
:1044c00002002000010037006011b8006000b80051
:1044d0000ff737006011b8000df437001400fa0030
:1044e000889fbe008a9fbe008c9fbe000406780095
:1044f0000004be000205be00680047000a90be002e
:104500000890be00c7f607006200e1000800be0088
:104510000a01be00040020000b003a001e029000b9
:10452000e43fb1006e009000fe0090000e09900084
:104530009e099000f300b20005fe23008581710002
:104540000bf0a70003f0a000040e7800f0f637008f
:104550002800fa00889fbe008a9fbe008c9fbe0084
:1045600003866b00d6f607000028a30064003a001b
:104570000128a30067003a000008a30062003a0087
:104580000108a30065003a001e009000be089000dc
:1045900081064000ed3fb100f4805700ee0190002d
:1045a000111ab8008e099000311bb8009e099000c6
:1045b000311cb800511db800f485570046000700b3
:1045c000fe0190003a0007008b85e8003e000700de
:1045d0008e09900040000700ee01900034000700b3
:1045e0008b85e800380007008e0990004000070026
:1045f0009e0990001b18b800890440000a854800f5
:10460000fe019000340007008b85e80038000700a9
:10461000ee019000300007008e0990001b18b800d2
:10462000890440000a8548000a98a30008003a005f
:104630000402420085824a0006034b0087834b0038
:1046400008044c0089844c000a054d008d06e900e1
:1046500084827200850273004c3add00850272008c
:104660000100320015002000443ade001400b200c0
:104670004538de00cb45dd000b007000c540de0094
:10468000cb4ddd008b8070004549de00cb55dd0051
:104690000b017100c551de000d03780035f60700ef
:1046a00003f0a1000cf0a70003f0a00098f637007b
:1046b0001b18b8008502400006834800e0834b00c9
:1046c00060044c00070037001b18b80006034000c8
:1046d00087834800faff37001b18b80087034000a3
:1046e00008844800e0844c0060054d00000006008e
:1046f0001b18b8000804400089844800faff3700fe
:104700000108a3007ff63a005800be005801be0021
:10471000e3ff37000008a3007af63a0009047800a6
:10472000f9ff37000000000007f0a20032fe37005a
:10473000d5f407000400be0000000600020ab9001c
:10474000001bb9000200b800810042008100430054
:1047500000000600889fbe008a9fbe008c9fbe009e
:104760000404be000605be00809fbe00829fbe00fe
:1047700021000700040678000800be000a01be0000
:104780001d000700840678004f03be004f02be00e4
:104790008d4f76007fb0970013003300f0ff2f009d
:1047a0008b8f6b0006003b000d0666000c00a70017
:1047b0000a00370007f0a600100020000a003700aa
:1047c000880f5200898f5a008a0f5b008b8f5b0025
:1047d000030039001000200001003e00000020000e
:1047e00007f0a7000000ea004f06be004f05be001c
:1047f0004f04be000000060005ff2700058261008f
:10480000070032000428e100010032002400050006
:104810000600070001003a004400050004080500f6
:1048200002000700f9ff3a00140005006f826100e2
:10483000810270008502710085027200000006008e
:020000040000fa
:104840000000000000000000880f0000c900000008
:10485000201d000092010000d72600005b0200002e
:10486000bf2a000024030000e6260000ed0300003c
:104870005d190000b6040000350000007f0500004f
:104880007cd900004706000045a300001007000087
:104890009e5b0000d90700009a000000a2080000fb
:1048a000499000006a090000bd080000330a0000ba
:1048b00005680000fb0a000035ac0000c30b0000d7
:1048c0005ed300008b0c000092db0000530d000053
:1048d000e4c200001b0e000066870000e30e00002b
:1048e0002b270000ab0f000048a000007210000052
:1048f000cff0000039110000d516000001120000b1
:104900006f100000c8120000b1db00008e13000021
:10491000b17600005514000086df00001b15000072
:1049200045140000e215000005130000a816000061
:10493000ded900006d170000e966000033180000a2
:104940003cb80000f8180000f3cb0000bd190000cf
:1049500026a00000821a0000ef320000471b000072
:104960006a8200000b1c0000b38c0000cf1c00000a
:10497000e54f0000931d00001eca0000561e0000f7
:104980007bf90000191f00001bdc0000dc1f000089
:104990001c7000009f200000a0b3000061210000f7
:1049a000c5a4000023220000af410000e522000062
:1049b0007f880000a62300005877000067240000cd
:1049c0005e0c000028250000b6450000e825000028
:1049d00086210000a8260000f49d00006727000043
:1049e00028b90000262800004b710000e5280000cf
:1049f00085c40000a329000001b10000612a000065
:104a0000eb3400001f2b00006f4e0000dc2b000079
:104a1000bafb0000982c0000fc3a0000552d000065
:104a2000620a0000112e00001e680000cc2e00005b
:104a300062520000872f000061c700004130000073
:104a40004dc50000fb3000005e4a0000b53100009b
:104a5000c75400006e320000c3e20000263300009d
:104a600087f20000de330000508200009634000020
:104a7000579000004d350000d91a000004360000a0
:104a800014200000ba360000469e00006f37000078
:104a9000b09300002438000093fe0000d8380000d6
:104aa00032dd00008c390000d22d0000403a0000b9
:104ab000b7ee0000f23a0000291e0000a53b0000fe
:104ac00070ba0000563c0000d6c10000073d00004f
:104ad000a6320000b83d00002c0b0000683e00002c
:104ae000b8490000173f000098ec0000c53f0000e7
:104af0001df20000734000009b580000214100009f
:104b0000651e0000ce410000d04100007a42000046
:104b100035c1000025430000ed9a0000d04300009d
:104b200050cd00007a440000bd560000244500002e
:104b30008f350000cd450000286800007546000054
:104b4000e7ec00001c4700002fc20000c347000034
:104b500065e6000069480000ee5700000f490000bc
:104b600033150000b44900009e1c0000584a0000a4
:104b7000986c0000fb4a0000900300009e4b000070
:104b8000f4df00003f4c000034000000e14c000066
:104b9000c4620000814d000017060000214e000095
:104ba000a5e80000bf4e0000e30800005e4f0000d3
:104bb0004d650000fb4f00005efc000097500000b8
:104bc00094cc0000335100006ed40000ce510000a0
:104bd0006e120000695200001885000002530000a8
:104be000f02a00009b5300007d02000033540000b7
:104bf0004b0a0000ca540000e2400000605500006b
:104c0000d2a40000f5550000a93400008a56000027
:104c1000faee00001d57000056d20000b057000009
:104c200054dd0000425800008c0e0000d4580000f3
:104c3000986400006459000012de0000f35900007f
:104c40009a790000825a0000cf350000105b000006
:104c5000541100009d5b0000cc0a0000295c00009c
:104c6000e0200000b45c0000375200003e5d000010
:104c70007c9d0000c75d00005d010000505e0000eb
:104c80008a7c0000d75e0000b30d00005e5f00006c
:104c90008db30000e35f0000cf6c0000686000008f
:104ca00030380000ec6000006c1400006f61000000
:104cb0003f000000f161000069fa0000716200002d
:104cc000ac010000f2620000cc140000716300002f
:104cd00090320000ef630000bf5900006c640000d8
:104ce00026890000e864000092bf000063650000b0
:104cf000d3fb0000dd650000bb3c000057660000f0
:104d000020810000cf660000d8c700004667000081
:104d1000bd0f0000bd670000ab5700003268000007
:104d2000819e0000a668000020e3000019690000d1
:104d30006c2400008c6900004a610000fd690000dd
:104d4000a49800006d6a000064c90000dc6a0000dd
:104d500079f200004a6b0000d1120000b86b00002d
:104d600060290000246c00001c3500008f6c0000de
:104d7000fc340000f96c0000fa270000626d0000ae
:104d8000140d0000ca6d00004ae30000306e000000
:104d90009da90000966e0000125f0000fb6e0000ef
:104da000b20200005f6f000085930000c16f000039
:104db0009a10000023700000ff780000837000004c
:104dc000c6cb0000e2700000050800004171000041
:104dd000d22c00009e71000049390000fa710000d9
:104de000852c000055720000a7050000af7200007e
:104df000d0c3000007730000266600005f73000048
:104e0000d1eb0000b5730000fb5300000b740000f1
:104e1000d19d00005f74000084c80000b2740000df
:104e200045d30000047500004cbd0000557500001e
:104e3000cf850000a57500000b2c0000f475000064
:104e40003daf000041760000a60e00008e76000007
:104e500089490000d97600002d5f0000237700000b
:104e6000db4e00006c770000df170000b477000015
:104e700089b90000fa77000029330000407800006b
:104e80001484000084780000a2ab0000c778000002
:104e90002da9000009790000127c00004a79000069
:104ea000b12300008a7900006e9f0000c8790000dd
:104eb000adee0000057a0000d8100000427a000034
:104ec0005b0500007d7a0000a4cb0000b67a0000ec
:104ed00023630000ef7a00004fcb0000267b000028
:104ee0009e0300005d7b0000890b0000927b0000a8
:104ef00090e20000c57b000030880000f87b0000d5
:104f0000eefb0000297c0000503d00005a7c0000b0
:104f1000de4b0000897c000024270000b77c0000e5
:104f2000b2ce0000e37c0000184200000f7d0000bc
:104f3000ec800000397d0000c68a0000627d000020
:104f4000405f00008a7d0000f8fd0000b07d000099
:104f50008f660000d67d0000a8980000fa7d000052
:104f6000ea9300001d7e0000ff5700003f7e000016
:104f700093e400005f7e0000573900007f7e000050
:104f8000fc5500009d7e0000393a0000ba7e00000a
:104f9000c6e50000d57e000060580000f07e0000ed
:104fa000c4910000097f0000b4910000217f00003f
:104fb000f6570000387f000051e400004d7f0000ec
:104fc0008f360000627f0000804e0000757f000079
:104fd000f32b0000877f0000bdce0000977f00000c
:104fe000b4360000a77f0000b3630000b57f000067
:104ff00096550000c27f00003e0c0000ce7f0000ee
:105000008e870000d87f00006bc70000e17f0000a2
:10501000c0cb0000e97f000078940000f07f000022
:1050200082210000f67f0000d1720000fa7f0000ac
:105030005a880000fd7f000016620000ff7f00001c
:10504000ffff0000ff7f000016620000ff7f0000ee
:105050005a880000fd7f0000d1720000fa7f000036
:1050600082210000f67f000078940000f07f0000ad
:10507000c0cb0000e97f00006bc70000e17f0000ab
:105080008e870000d87f00003e0c0000ce7f00001d
:1050900096550000c27f0000b3630000b57f00009a
:1050a000b4360000a77f0000bdce0000977f00004f
:1050b000f32b0000877f0000804e0000757f00000a
:1050c0008f360000627f000051e400004d7f000039
:1050d000f6570000387f0000b4910000217f0000e7
:1050e000c4910000097f000060580000f07e0000bd
:1050f000c6e50000d57e0000393a0000ba7e000007
:10510000fc5500009d7e0000573900007f7e0000a6
:1051100093e400005f7e0000ff5700003f7e000028
:10512000ea9300001d7e0000a8980000fa7d0000b0
:105130008f660000d67d0000f8fd0000b07d000005
:10514000405f00008a7d0000c68a0000627d00008a
:10515000ec800000397d0000184200000f7d000047
:10516000b2ce0000e37c000024270000b77c0000e2
:10517000de4b0000897c0000503d00005a7c00009e
:10518000eefb0000297c000030880000f87b000066
:1051900090e20000c57b0000890b0000927b0000bc
:1051a0009e0300005d7b00004fcb0000267b0000cb
:1051b00023630000ef7a0000a4cb0000b67a000061
:1051c0005b0500007d7a0000d8100000427a0000e4
:1051d000adee0000057a00006e9f0000c879000067
:1051e000b12300008a790000127c00004a79000097
:1051f0002da9000009790000a2ab0000c7780000cb
:1052000014840000847800002933000040780000f6
:1052100089b90000fa770000df170000b4770000ba
:10522000db4e00006c7700002d5f0000237700004c
:1052300089490000d9760000a60e00008e76000095
:105240003daf0000417600000b2c0000f47500001b
:10525000cf850000a57500004cbd0000557500000d
:1052600045d300000475000084c80000b27400003b
:10527000d19d00005f740000fb5300000b74000020
:10528000d1eb0000b5730000266600005f730000dc
:10529000d0c3000007730000a7050000af72000034
:1052a000852c00005572000049390000fa71000099
:1052b000d22c00009e710000050800004171000022
:1052c000c6cb0000e2700000ff7800008370000091
:1052d0009a1000002370000085930000c16f000049
:1052e000b20200005f6f0000125f0000fb6e000062
:1052f0009da90000966e00004ae30000306e000099
:10530000140d0000ca6d0000fa270000626d000055
:10531000fc340000f96c00001c3500008f6c0000ac
:1053200060290000246c0000d1120000b86b00005e
:1053300079f200004a6b000064c90000dc6a0000da
:10534000a49800006d6a00004a610000fd69000039
:105350006c2400008c69000020e300001969000043
:10536000819e0000a6680000ab5700003268000074
:10537000bd0f0000bd670000d8c7000046670000f1
:1053800020810000cf660000bb3c00005766000093
:10539000d3fb0000dd65000092bf000063650000e4
:1053a00026890000e8640000bf5900006c6400001a
:1053b00090320000ef630000cc1400007163000025
:1053c000ac010000f262000069fa000071620000a6
:1053d0003f000000f16100006c1400006f610000ec
:1053e00030380000ec600000cf6c00006860000006
:1053f0008db30000e35f0000b30d00005e5f0000ae
:105400008a7c0000d75e00005d010000505e000055
:105410007c9d0000c75d0000375200003e5d00002b
:10542000e0200000b45c0000cc0a0000295c000011
:10543000541100009d5b0000cf350000105b0000a0
:105440009a790000825a000012de0000f359000031
:1054500098640000645900008c0e0000d4580000cd
:1054600054dd00004258000056d20000b057000042
:10547000faee00001d570000a93400008a56000013
:10548000d2a40000f5550000e24000006055000085
:105490004b0a0000ca5400007d0200003354000093
:1054a000f02a00009b530000188500000253000002
:1054b0006e120000695200006ed40000ce51000050
:1054c00094cc0000335100005efc000097500000b7
:1054d0004d650000fb4f0000e30800005e4f000038
:1054e000a5e80000bf4e000017060000214e000096
:1054f000c4620000814d000034000000e14c000057
:10550000f4df00003f4c0000900300009e4b0000c1
:10551000986c0000fb4a00009e1c0000584a0000e6
:1055200033150000b4490000ee5700000f49000099
:1055300065e60000694800002fc20000c347000074
:10554000e7ec00001c4700002868000075460000da
:105550008f350000cd450000bd56000024450000f9
:1055600050cd00007a440000ed9a0000d0430000c6
:1055700035c1000025430000d04100007a42000000
:10558000651e0000ce4100009b5800002141000034
:105590001df200007340000098ec0000c53f0000c1
:1055a000b8490000173f00002c0b0000683e0000c7
:1055b000a6320000b83d0000d6c10000073d000043
